:100000000C94B9000C94E1000C94E1000C94E10014
:100010000C94C6170C94E1000C94E1000C94E100E0
:100020000C94E1000C94E1000C94E1000C94E100CC
:100030000C94E1000C94E1000C94E1000C94E100BC
:100040000C9474360C94E1000C947B270C941728C4
:100050000C94E1000C9490180C94E1000C94E100D5
:100060000C94E1000C94E100122D4B2D8B2DB92A3C
:10007000D22D242D1E2D642DE12D162E162E162E7A
:10008000C02D162E482D412D162E2E2B162EA92DA5
:10009000162E842A342B162E162E162E162E162EBB
:1000A000162E162E162E162E162E162E162E162E30
:1000B000162E162E182D162E162E162E162E162E1F
:1000C000C42D162E162E162E162E3E2D6D020370E2
:1000D00002037302037702037A02037D02038202A2
:1000E000068802068E02039402039102039702031C
:1000F0008002029B02019A02019D02019C0201CF33
:10010000025D9B135F1C8706E14B121E4B8B905CBC
:1001100048B0604A25175FEF135F1D871E284B12FA
:10012000024B86865C48CA604A3F285FF2135F052F
:100130008730F94B170B4B8B8B5C4FD7604C4E3D88
:1001400058971364388745E34B121C4B86EC5C4A86
:10015000E7604B5D565C931360258759AC4B124C9E
:100160004B869DA04A135D46275EE97ED5952DBC42
:10017000576658357D07549886A9EF1D16446FBE03
:10018000E9F10F296563A8AE131E4E1581CCE34734
:100190000F505E6448A9BB44FA659B9E54A30B8133
:1001A00036A6BFBE223E0B6C79BE4DD180E083AE39
:1001B00050DDFD9811BB675980086CDDA78552DDC5
:1001C0003F995519C45E64A966DEDF5356DC36F8E4
:1001D0005719315E59A3C94A954B314821F0B7866A
:1001E000F0CC2312B0E39373BB4919F3D918815FA4
:1001F000C9A4CC4AE566334871F1B5867DBEC9A471
:10020000C94A9397BD4919F3C916645FD9A2CD4A6B
:10021000A580324811F5BA7628CF2412816075EF97
:100220007ED87C5F6BA847AE47A5414995BF35484E
:1002300091EFB386A4CFBB13E76CEECB04D31C1EA7
:10024000761F63BE69A4C94A86DECEDA805FC9180C
:100250003E5F47A5434995C532483E1E78E47ECDB2
:1002600025128479C594DED87B5FCC82489E47A551
:100270004349A6B37C6A8A4E6AD55ACD2512806C52
:10028000567573D391EF1C8618CF9D12EEDCF68E57
:10029000DEDA815F5945B6CF9A128EDA599CDED8E4
:1002A000815FD916D55F61289750AE5B50DDF45E53
:1002B000CF6532CD2512DEDA52B8CEA9AD5F780215
:1002C00080CF23127F5EB6C2D7B9535B62454E2200
:1002D000D9815EE09625D2A9121ECD655CCD231290
:1002E000ED38240C38A91FF23F85E2CB0B106609CC
:1002F0000711DEDA7B5FCB6568BE26F16CDD7BFF24
:1003000056DC00F0481709CD56A42DDC649E4EDB68
:100310006F5FE873FD70DBF157778BFC4FA9D23E1E
:100320001A65F55FA4A2DB4A1306DF19948E0979DA
:10033000C0BEA7205D68726BA00691DFDA06C65FBB
:100340007BA8EFCC05C68248FEEF45164DCEB9928C
:100350003E768EC6D66A324E41868ADD89A4BC4A74
:10036000543E591730AD0DB589A896A22DDAA4FEDA
:1003700051D810EE38157ECB86A33DDB74EFA1DBA0
:10038000E0F12818685F2398CE29056BCEA91FF2EB
:1003900099BEF95F35128234B7731FA86E415719A1
:1003A000A4649512294A1020C2CEBEE5070CCEBE29
:1003B00039F1DF371651F948A75F571909669512C9
:1003C000294A1444C6C2BAE9031015CF86A25DD9E2
:1003D000744181D9E0EE511A17CD96A44A4AA05D26
:1003E00036CA7F3E57195A5F529B7AD3A26740C3E1
:1003F0002BE06207EDD851973DDA546A56DC20F1C4
:100400006818CDCD89F1672A95E946899D8DD96512
:1004100090C1B912DFE8751ACED6016B5AA9F3065E
:10042000B760E1CA0D0617B992DFDB06F05FA4A240
:100430005ADA89B3ABC8F18B521AF501C9A2BC4A8A
:100440004D567EBA21F0BB8687CF56A26DDA8DDA83
:1004500051DA30F1181896BE40F26E299D9DD26691
:10046000A13EC924945FC8B04E5615F4AE44228212
:1004700036DD8C11CA92E66CCE89DFC8A3DF2586F3
:100480006DCFB5A260C97806BE641AF318E40ECF2A
:1004900017122660A566DFA991F1BB8653CF56A23D
:1004A0006DDA8D3671DB50F09817F5CC26A3DDDBC5
:1004B0001423C1DBC0F0081777CC96A34DDB842D45
:1004C00051DA30F1181819CD84C83C00F25A51FFA6
:1004D00009F22744DBE084D03C4A9C4DBEA9023E91
:1004E000CB66E3CE44A3DF99661EC76D633E6EB351
:1004F000C17285D1C775FCD3D7A8A13EB1230E5FC9
:1005000020AF4E56FD9BAE44228236DDF211CA92D8
:10051000E66C8EE7E489945F49940B41B11244562E
:100520007C3CB046107DCA65B8BEC520FB686D2016
:10053000A756F7DE4005F15FF8126CDD1F072EDCD1
:1005400072F3C8D42DD133A0C7CCFFC8FECDC2E210
:100550000E86E35F47A5F883F5CC3FDC90ADB4147D
:100560001CD12294DACC47E38DCDD75FFA8660CADE
:10057000D34BCEDEE6E02106978CC61411DD37940E
:100580002C4A86153EAB8F425719076BC134673D25
:10059000E5515B172EAD4186D8DE189158CB6E1D04
:1005A000E2CBBCE027076BDC87125FDFE54F20ADB5
:1005B0001FF2D6BA3C7D4005AA097DBA3EC882DF4B
:1005C000AD9EB757C138D546055CC6661FF299BEC9
:1005D0004B5FE512BE29F537DFA7A64257196B66B8
:1005E0008F3F35776DCBA767578DA0B484713040AE
:1005F000294A3FF27EA9413EF286F4CAF849E5480D
:100600008BC1A9B301F2407DF8CA48F15F0985EFBB
:100610009948C75F696526BE09F3AF2D93895E735C
:10062000985B6145E35FFF127E29B5CB11AE644252
:10063000571983665127D239B2DFFC67333EFBB3CB
:10064000E652FE2D254A3B4650DD33973E862ED599
:1006500048D15E297ED8A7CA9BEBD308C7D3D294D2
:100660004AD671E0D3CB0EEB4708A45F48A7BE2B58
:10067000039550DD9E934AB539AABA1241A2823041
:10068000DFA9A6E3DA9606BECC98F1DD051C00488A
:10069000A9745179BB91C4F7F029930F3D5A1FF209
:1006A00012B322CFA7136CDD2B814EDB5B64B61B2C
:1006B000BFE8B1A53C08940993F6F0EF1816A1CF56
:1006C00046A25DD9745581D9E0EE081563CED6A156
:1006D000EDD9044331D970EE9815E5CE66A166DEFA
:1006E000547281DA0D5FCC06607DE0021FCA576E3E
:1006F000D5C8998132753D5FE338F5462568E466D3
:1007000054E79D0E61D73F9AE2581A14F856C87DF7
:10071000CC1086D5EC9C14D40E36C466BC8D04ACCB
:1007200087A3F3A682CABAA676464A7D791409D56C
:10073000E19217CA9DA373D84DEF621C9CDFF9F1BB
:1007400001A2420C43DF9DEF661C2DD7C822BFDEFD
:100750005350A7481AF3281697CF41A62DDC64CC36
:10076000B24899E3E20A0E45301CE670FC90DEDCEC
:10077000A98D5719246762969ACED2FE00CC1FF23B
:100780004DBF8CCA544AEDD20B92C76E985BD91AF2
:100790001651DE30F6D8141C72C84EDFCBA00D55B2
:1007A000E338F5462530E466CB8DF2B43471C138B8
:1007B000E9D42138F3C2CFE9281675CF41A6DEDA95
:1007C00097C0D1763A52CF65C6CA1548DEDC97CEBF
:1007D0007ED8EB6079160D5C8012C22AF53D50DDA3
:1007E000AB98AB94974139A4204AE5789F4891EFA4
:1007F000258762CF9413E6581EE6D646AA7DAE65DD
:1008000070BE47A5F883F5949E4871F108861ECC0A
:10081000F71266DE1487C1DBC0F00817D3CC96A3AD
:100820004DDB84B151DA30F11818F5CDC9A2704A08
:100830009D2752B9F51E783CC0CAC9A2294A15AEF7
:100840009248401D69168F5F79A2284A0756CD420B
:10085000BB85E082F4CBF3409EDA4A5A0ED8D75FCC
:10086000A916A55F39A2264A0966CB56B77D00A412
:10087000F0CD8C12EEDC4B76FEDAD85FF918B65F5D
:10088000AAF113DE2C10C9DC98F3331A5DA9D9A4A0
:10089000284A05009748AD5F028612793E0EDEDEDB
:1008A0001D8E7ED8E76079167F5C09F1AE29933BF7
:1008B0003973BC5F05864ABE3FA6C5DEDC2819DC5D
:1008C0000BF31A7C94CD8D129EDC48CA7ED8EB6067
:1008D0007916095C0B28B150312DDED8835FD1A881
:1008E000C9AFC8F1DEDC43E650DD105FC9162D5FED
:1008F000D9A2224AB715D97BA4650D757CCF841285
:10090000DEB197C37ED8CF5F6BA88BAE69A21F4ABA
:10091000B5809C4835757E8C54AA47A5864B958D2D
:10092000E04891EF1686A929C9A42B4AA5BC9D4889
:1009300041EF0D86B6BE6F43965091CF3E8991EF41
:100940002187D2CF90139EDA5248765E4A655D7950
:10095000103A48D1ADC4C5C4934851EF25870ECF96
:100960009413725F9A6352B95B1EC916D35FD9A202
:100970001E4AAD64674E3D4E13865E497C186A3D43
:100980004E808ED86F5F4F6C99BE1EF84377D76F3D
:10099000AB67D13E95863C7ADE0DFEDD3FB17389B3
:1009A000095FC9062C7D5002554AE52A7ED8ED60C4
:1009B00079166F5CB11290E045398FC9075FCC069C
:1009C000487DE001CE290527CEA9558580828ECBB2
:1009D0001D406CDDECEFFB48A55F57197164665054
:1009E0008F4E9E134EB9404D79651C5F6A942DA8B9
:1009F0008CAF410619F22AA109428428E73F646EB0
:100A000091D830EF5816F9CEA6A13DD9549DE1D921
:100A1000C0EEE8159BCE41A67EDA4E1A6ED8DB5F9B
:100A20005B9B31589D05765F9E2FE2BDBB85E082C2
:100A300090CBF340AA290D38C756BB7D04A474CBD4
:100A40009808A270BCB81EDC658D0586815F47A53D
:100A50000B83B5C0894B31F11F8752CB59A32B4A69
:100A600005F0594D99816279E9BEC9A42B4A05FE6A
:100A7000F94BA1EFF18776C9C005DEDA2E7FCED81B
:100A8000BB60491CDDAAC9A2094B151AF24B11F52E
:100A9000727912CF8412E0A9050A934891EF168665
:100AA0004FB0BBF1EE29A6367C6A824E2886070934
:100AB000F9518ADAA79657BD95BE28861F09F951C4
:100AC0008ADAA7E057BD99BEE8E4596E2808DEDC53
:100AD00052D056DCA0F0E81777CCF6A32DDB644D9E
:100AE000B1DB10F0C918345F2140CE29050DCEA925
:100AF0001FF299BE9F5F3512DED976F8CED9036119
:100B0000E915F15DF9A1524CB1E06DAC5A4AA1680A
:100B10001ECA4D4B034A191650DDC69657193C673D
:100B20009512294A15B68F4891F11986EB5FFF128D
:100B3000802EBED713A0694157193E64EC12F24AC9
:100B400093D5EB711FF26BBE945F8212EEDC544EB4
:100B5000DEDADF5F4815B9CE96A12DD944CDF1D9A3
:100B6000B0EED8156CCBA6A35DDB94F841DAE0F1CA
:100B700028189E5F0196B7CE8DF847C852739A8A9F
:100B8000A1AA48266F4E8E73CD89FBDE44050EBEAA
:100B9000A127E6297D93C2BDD85FAC651451D03042
:100BA000C8DE66547C6E448571A093554B28715005
:100BB000B141DE5EA2656579345F48D1E74A052E12
:100BC0008C48998132750C5FD512A270BC301EDC46
:100BD000658D13866D5F47A5C583A54A904841EF93
:100BE0001886A2BE19F16CDD54D39948BB85E0820A
:100BF00050CBF3408660BEF0144E6C659579F49E40
:100C000057257D4D99F55EA9213E620C04D919D175
:100C10005E2995F39648BB85E082BACBF3401878FD
:100C20002E0EC6669985550635DF67929DCA8D38AA
:100C3000474E3B65848C92AA09A22E4AD5AC8F48B8
:100C4000713EB96504511830C068F85412CA6EE19B
:100C5000B7082DDDCD28F3502B5EE94EFD526145DE
:100C6000E049D81800503860E2BD51EF19863ECFF8
:100C70009812BE29F5955A5226696F904B554594A6
:100C80007BCCB30061CA1975628CA0597218823D81
:100C90001112C3CABFE1080814DFD4920CCA441E63
:100CA000D766AB8DF4B41D79EE0E18DE1E2AD6CEB3
:100CB000F0EF1816ABCF46A25DD9742B56DC91EF3E
:100CC00006874A7D5001E6FA05AA5C89990FD8018A
:100CD00058E759A317491137DEDAC95ECD655ECDF5
:100CE000F511E829150550DDDB945917385F59A334
:100CF000314A8D66C4A5201EDAD593AA59A31A4994
:100D0000A5908D4841EF1D86270176608EDC590E37
:100D10007EDAE45F4D4536CFF511854872D2CED8E4
:100D2000CA5EE19C6DAEC9A2314A15BA8A4812F476
:100D3000D918E65FC9A4314A8DAC91DAD98DCD6F4F
:100D4000C0CDF5111E488F87DEA81FF2C38B8ECD54
:100D5000F211E23105C6E24991425245D4BE47A59F
:100D6000D84F45F0E5499546C918D65EC1F26CDD0D
:100D7000FF7791D819F3CD6EF8CDF51166DE05EC4D
:100D8000E5499546C9183A5EC1F36CDDFF8B56DC28
:100D9000E0F111B41C7D6001E2350508E2499143A0
:100DA0004D4526B6C9A41A490D4C50DD8B64C916B1
:100DB0000B5E8534773D195ECEDACD5E1816B6CB64
:100DC00086A33DDB7457A1DB20F1681803CD96A400
:100DD0005E19526480FE7B5F2915095FB9A1324A12
:100DE0000DEEDF297AE1C308E6CAD417C7CA8BC063
:100DF00024C8288D5645FECA88192F51061D9F5DAF
:100E0000E262527984BE47A5264F7D0ADFDAA05FF1
:100E10000A99C35AC808DF29A5888D4841EF1D8665
:100E2000C248BA17673905C751D920EE2816E1CF55
:100E300056A26DDA84A5B1D9F0EE181534CB86A38D
:100E40003DDB84D151DA30F1181895CD46A32B0043
:100E500063E6A6677B5FD286D05120946CDD225971
:100E600037C8978D5719D958C63E144A2D6C50DD96
:100E7000F1645815ABCF86A27DDA94EAA1D9F0EEE1
:100E800018158ACB86A43DDC941B93FEEF15F786DC
:100E9000DF0116607F29B57750DD3065D20691CE2F
:100EA00096A22DDA8D3051DA30F1181873CD49E160
:100EB0002B0063045ED8E45F59166E5FC120A8CC96
:100EC000EE4250DDAE64B2064E7147A51D4FCF4EC7
:100ED000DA661FF2088B52B7C9A41A49063D7ED8BC
:100EE000E45F7916305F4B2871508E1BDEA920EE2F
:100EF00058152DCF86A27DDA946856DC20F168184B
:100F0000CFCD96A45E19949593FEEF154916DD5F3B
:100F100059A2324A0D1A75CA5BE1B20812CAD41737
:100F2000C7CA0B0C50DDD0649306AE7147A51D4FA8
:100F3000B0B0DC661FF2088BBCB7C9A41A4906DF43
:100F40007ED8E45F7916925F4B2871508EBDDEA982
:100F500020EE58155BCE96A22DDAA4CA51D819F30B
:100F60001817BDCCA6A35DDB93FDD57FA1F16D87DE
:100F7000F0CD6A13BEDA8D732ED81A62D1AC09A3F4
:100F8000C9A6F67893110E70ED5F14860CCDA212EF
:100F9000EEDC7192FEDAFE5FF918745F463F4E296F
:100FA000548FAEA9F08C39654770B9F15D777582C1
:100FB0009EDB36601917905CA9A3854B752F764B85
:100FC00071EF5389B4CF4215E670FC36DEDCA98D93
:100FD000571982679512294A054AB148A1F1398605
:100FE00040CDB8120EDC77E69EDB3A601917C45C80
:100FF000A9A3894B7567724B71EF55898CCF441546
:10100000E670FCFEDEDCA98D57195A679512294A55
:101010000582AD48A1F13D86B8CDBC120EDC7B1E29
:101020009EDB3E601917085CA9A38D4B75BF6E4B04
:10103000954DDA65A4CD9112DEDC5C3AA1D900EEC3
:1010400028158DCE41A6E0793DB93666813EC96549
:10105000C0BE47A5AE82A5B76EA951489A6950CACD
:101060004D4BF94A31643EA9813EC96DF3BD47A598
:101070001381BB5C7966151E867156B2C5F5FB2CD3
:101080005E80A666FA8D94B4DA712140D778C51CCB
:101090006F4B61F17B87F6CD7A13CEDCB99FE748C1
:1010A000988DDBB40B71F7401A4A52AA71AF433FD7
:1010B0008C65E8BD47A5628361B8954891F17E874C
:1010C00050CD7F13FEDCBCC5EEDA4960511AE1CC8D
:1010D00076A3ADDBE44731DB90F0D81743CCE6A331
:1010E0001DDB547181DB00F04817E5CD56A42DDCE3
:1010F000646293FEEF15291CF7E8B1A53C08944102
:1011000093F651EF578956CF4615C470DCF03EDC9C
:10111000878DC9162D5CD9A2984B258A654BC1EFE6
:101120008587A651DC3004683C36DEDA4A60D9187F
:101130000A5CE9A4994B35A4624B51EF59896ECFF3
:101140005815C470DCB83EDC878DC916715CD9A215
:101150009C4B25C2614BC1EF8987DE51DC300468AE
:101160003C7EDEDA4E60D918565CE9A49D4B35FC16
:101170001E4B51EF5B8926CF5A15C470DC803EDCD4
:10118000878DC916C55CD9A2A04B251A1D4BC1EF8E
:101190008D871651DC3004683C86DEDA5260D9183F
:1011A000E25CE9A4A14B35341A4BF1EFD58B5EBE5E
:1011B000A96B5C980534DF792A5257191B7DB8D585
:1011C000E7798E338D8891EF938B4E6E4005470DF6
:1011D0007D31B167053E48B37DB0C33FFF291FF1A4
:1011E000EBAD7C8CFB659D7062FF8F29BF6277C67B
:1011F000A04BDA656AD1C4A08A4A9EFA5EA9785FDC
:101200001F86EFCEB4A1CB4A7908DFD8A2EF98862B
:10121000F850B02F314A7285A3DB4E5F3A867FCFFC
:1012200038A2DFDA16B441481FF266BEF05F8212C0
:10123000F54AAD286742E35F761807CD64126DA8C2
:101240008871AFBFD1EE208698CE91121F5D564BAC
:10125000F7B8113E3612A8D328A2CFDA83D2B3C68C
:101260009985C082E4CBD1406CDDD55271A1434A4F
:101270008E742EBD47A562832078F248BAEB031224
:10128000EDCF34A2EBDA211650DD5E962586455F60
:10129000A09E58D60606CFDAB2F1FA1866D1A0A001
:1012A0006DA88893E7BF19F20A8D7B5699A3364A39
:1012B00045238948913ED965645FD2D3DEDA70BE9A
:1012C000CED8FD5FE9162B5FF9A24C4A0E6EC4EA38
:1012D000BC010528B4CF0013CEDACFD9D66E885B17
:1012E000C91A7A7147A5AE82D0E8024891EF3C86D0
:1012F00060CFBD12FEDA7AF6EED8075FD62860FD21
:10130000E6B416F0E5941B4B81EF8F8784793E0E8F
:10131000DEDE1D3C50DD6197B22C60F9C2B8FAF0F8
:10132000EE8024E89CFFE5268D5FDD126CDD8915DB
:1013300035488D5FB62648FFC6B2F6EEAE9864EC2F
:101340005C03A52A4ACA4D4BF94A314A9948C75FFE
:1013500057191E669512294A12DEC0CEC0E501104B
:1013600020CEA612AED975663ED9025FB9159C5F34
:1013700029A2A54BF5E4164B9985C082FCCBD14040
:101380006CDDD5BA35488D5F0C86385FEC12F24AB9
:1013900093055A735C5FA586F5FF37B2EDEA1D3AF7
:1013A000F948A75F5719A264D2120A4A4AACEA4820
:1013B0001FF295BD685F8212E7D41F30F5C2CDE9F8
:1013C0000C86705F60B698EED06C02EC1FF24DBFD9
:1013D0009B5F1512C7EAFF76D5E8ADFFF086485F40
:1013E00047A5628320E4F248D65FFD86E2CA05493C
:1013F0003A4A50F2D3C2AFE9F81042D169A18F4BFB
:10140000B5916C4B51EE7C8758CE7D13DEDABA0D68
:10141000CED84760E916215CF9A2964B12BAC0EE0D
:10142000C0050130C1BC273F4029030580482EF488
:10143000032C9BF9AAFC50297F9AB7EA353F7D65BA
:101440007EFD64B4612932CAE0C47EEFC616F0D1D5
:10145000E4A0E670FCA8DEDCA98D57190C67EB123E
:10146000EF4A93F75A73AC5FF58683D3B39EBECA37
:10147000F6F0DCC8A4DF571935669512294A6EF2DA
:10148000A4C491E1DA0824DDFA94314A121DC3D9CB
:10149000BEEE05157DFBB3B61FD9560BBFD902EEC4
:1014A000432C4BF98E12144AA5496EAD5D479E71CF
:1014B000BECAF849E5469A779948C75F69658EBA0A
:1014C00005FAB32D93515E732974F579C370B9F1A0
:1014D0002D77753781670D4738B32FBAB63F4E76F3
:1014E0008F215167013E18B318BA963F5A3274C122
:1014F000ABA5108C39B2315FFF128BEEC35811ECE3
:10150000690757190064D2120A4A4A0AEA481FF2C8
:1015100096BD895FE2121A4A581813DA6EF1B618AE
:101520005DCD741247EA7F86BFD902EE4328C7FD1E
:101530001140A778071ACD66B68DFDB4805F84127E
:101540006CDDA27A8248DC5FD792D543E4B21CEA14
:1015500012C2C3DACF01F628590EA09E58D6B9C9D7
:10156000A4C6FAED49A86FAE27E0790C0B5D57B918
:101570005A1F5719FF6869A2814BB5EA7A4BCD5FB4
:10158000ABA0F15539A4804BE51A7F4BA1F16D87D3
:1015900010CD6A13DE29157750DD5F9769166B5DF4
:1015A00079A2544CC534A94A61EF4188A2CA4D4B77
:1015B000B477CC9DA667FA8C8786B2CA282DCF65F2
:1015C0000E22D667933EE1B35BBE803F324AF25EA5
:1015D00023D89EEFE516D8CA194A637699F071644C
:1015E0004F8BF2867C5F47A5628361EA9548045F72
:1015F000CA1863CDE8A40FDCC4F88A482EF0661739
:101600001DCC54A3AB4A4F9357BE91EE34869ECE69
:10161000A512FED97214EED9FF5F0915F35F99A1E7
:101620004E4A65B3AF4801EE3B86A3DFD39209CAA9
:1016300041B0D7C6ABEDF41484D1C9A2514A15AE5E
:10164000AA48B1EF3E86F6CFBF12EBD823C2F1C64F
:10165000C901D20ACEDBE2961ACE0EF8C4EABC016A
:1016600005280BD3339EE9D621E473C44FEB9812BF
:1016700028FF47A56283B07662487AFFC326F5FF4C
:10168000D5B2054A1B8450DD1598E486205F8A1286
:10169000104A93071271AC5FF5865F5FFD126CDD37
:1016A000D2998248DC5FC918435FD9A44A4A253CD5
:1016B000B348C1F13786FBDE1791CDC9FD399D488E
:1016C000C35F7612FAD3069EB6EA935F5A737E0121
:1016D000C7285DFDD1B8C7EAFF78D5E8ADFFEE8633
:1016E000745F47A5628320E6F2487EFFC72661FF4C
:1016F000D1B66CDDD2CDC548BD5F10864A5F47A527
:10170000AB816102954891F138869ACDB912FEDC21
:101710007610EEDA035F0C86AA5FEE12F44A938B22
:101720005A737C5FC5864FD3339EE9D621A0FB4810
:10173000A55F57193064D2120A4A4C3AE8481FF2A2
:1017400096BDD95FE512CBD603C4D1C4A9FF571902
:101750001C669512294A05C4AD48A1F13D86FECD0F
:10176000BC120EDC7B6437C48BEBD412F0D369A2BD
:10177000594AB5E2A24851EF46862ACFB7126CDD2E
:1017800089BB35488D5F0C863A5F69A2554AB51E04
:10179000A64851EF4286C6CFB3126CDD89A7C54873
:1017A000BD5F1086125F47A5AA81F0AA22487AFF82
:1017B000C32639FFD5B27EDA84B86ED81160891697
:1017C000C15C19A2604B93535A73AC5FF586095FF5
:1017D000FF126CDDD2EDC548BD5FA916975C39A23A
:1017E000AA4B0572134BA1EF9787E4CA04493A4A02
:1017F00050F0DEDA5C60D918B45CE9A4AB4B356C10
:10180000104BE01FCCB50FAEFAD17EDA740C6ED857
:10181000015F8916E55F19A2504A458BAD48E1EE9C
:101820003D86C2CEBC124ED97B289448CA5F571958
:1018300034640212BA4A4C36E848B85FDF8630CAD0
:101840004D4BF94A31449B48C55F57190166D21286
:1018500056786E7C1866648DB1B4237109A4AD4BC3
:10186000D5F20E4B71F19A8718CD1B13E078184012
:10187000F166CF8D0586BB5F47A5D657617C95483D
:1018800091F19C8714CD1D13FEDCDA89EEDA6760D6
:10189000A9167D5F39A24E4A0508AF48A1EF3B86E5
:1018A000AECA544AC94A01A63ED8045FB9165A5F67
:1018B000C9A2534A1524A8481FF266BE175FF51245
:1018C000244A3FC250DD376CD918D45CC9A47B4B85
:1018D000E540B54881EF358658CFA412EEDA73DEC5
:1018E00050DD2E97B4869A5F29F1CE290505C1AA4D
:1018F00031EF9C87C4CF1D139EDADAF90ED86760EA
:101900005719B76647A57B823008E248D75F038640
:101910001ECA6F1FEEDCA115DEDA2C60A916555C1D
:1019200039A2AA4B05B4134BA1EF978700BA74F400
:10193000AD29D9D750DD1598571927679512294A2F
:101940002140CEDA3160C918575CD5F27F7BBE48A2
:1019500042B931B281C8519EEAFF7E87BF5A52B95F
:10196000311F69E1531279A47E4BA5F8414B2A1F20
:10197000CDB57BAE5FD27EDA70786ED8FD5F89160A
:101980006D5F19A24C4A4F86E7481FF24DBFAECF9C
:1019900006138EDAD5971ED862609916CE5C47A5DD
:1019A000AB81933726477C5FC586CACD5D12CEDCFE
:1019B0009AB0DEDA275FD918AF5FC9A2514A152E57
:1019C000AA48B1EF3E8676CFBF12E7D81F42F5C6D0
:1019D000CDEDC915875CD9A1B24B254B0B4BC1EEA0
:1019E0009F875E5F8412034A19E850DD15987FB324
:1019F000D770C0B4FBEC26F666663A8DCEB46A7139
:101A0000EA4010780596594BA1F15187ACCD4013AF
:101A10000EDC8F11DED8005FD916EA5FE9A24F4ACB
:101A200035B0AC489EEDE71487D1F1B41A4A522E76
:101A3000CE11B65FDD8638CA4D4BD477EC130667FE
:101A40005A8CEC86D65FCC40F2782864EC6691F133
:101A50005487C2CD4513FEDC925BEEDA1F60B212F2
:101A60001AD3C29EFAD6766607E85EFF58B4707144
:101A70006C4092782E74C6481FF24DBF375F151226
:101A8000CBD6030ED1C4A9FF3C86285F46407C78A4
:101A9000AABE6A66BA5FE18696CA4D4BF94A319E84
:101AA0009B48C55F5719EA66EE12F44A93395A7398
:101AB000ED5F148634CD4613EEDC95B9FEDA226074
:101AC000F918D05CC9A1494A1559B248B1EE368619
:101AD00060CEA712234A39D6FC48368D7DB4775F95
:101AE000D1126CDD89DFF948A75F5719E8649512B8
:101AF000294A05604D4BA1F15D875ACD5C130EDC80
:101B00009B039B48C55FD9DDF95F10B2ABEA942017
:101B10004066368D7DB4BF5FD1126CDD8927F948F0
:101B2000A75F571920649512294A05B8494BA1F1BE
:101B3000618792CD50130EDC9F3B9B48C55FF086BA
:101B4000D65F47A562836146954891F14086DECD18
:101B5000B112FEDC7E54EEDA0B5FB61222D3C69EC3
:101B6000F6EA2C62C8481FF24DBFB65F8212DEDC77
:101B70008070CEDA0D5FE918855FF9A45C4AEEF259
:101B800024C49CEBE512215FDF126CDD89B782482B
:101B9000DC5FC9186B5FD9A45E4B25085F4BC1F1B0
:101BA0004B8742C846C756DD631651F7DE1D28161F
:101BB0007FCF56A26DDA8427B1D9F0EE181501CE89
:101BC000E6A1FDD9145521D980EEA81583CE76A1C2
:101BD0008DD98D4691DBF0F0381725CC86A43DDCFD
:101BE00070E0C248CA5FD1AC9FA3C9A6F678A57EB3
:101BF0004D4844857082C6CB0A40B17893693973E9
:101C00007C5FC586BA5FC138D546059EC66631EF92
:101C10001F8621796E0E8EDEC8360D661FF2B0BFAC
:101C2000FC5F821226575E39B4570C7C3065DBCAE4
:101C3000AEA535DD4CA1B4DCE2550F86E3CF86A21C
:101C40005DD974D381D9E0EE511A42CB86A33DDB36
:101C500074C3A1DB20F1681897CD96A4CA4A705EC0
:101C6000D248A85D4D456679583866649E6620481E
:101C7000F16C3AA3A3A35ED11E645670E048998527
:101C8000C08202CBD1408C2CC36611A6704D57196F
:101C9000F764DE12A270BC6A1EDC658D57195164B0
:101CA00067649C989B65E9489985C0822CCBD1409C
:101CB0008C2CC35C11A6704D5719DD64452C7B54E8
:101CC0001DC01A6E485B891A9C7147A52D83AF947D
:101CD0006406E85C4C45E6CB68A69D984EDC81D84E
:101CE000E0EF6816EBCFB6A14DD9647B91D919F31B
:101CF00018172DCCA6A35DDB946A41DA9C5FE586BC
:101D000035CB6EA675DE8C9208A1D68CA36ADB70EB
:101D10001EF44377E4F0AB67D1781A8FFE54BA1BF8
:101D20007E29B5C31EA9704157192E64EE12F44ADC
:101D300093A55A73B85FDF8636CA4D4BF94A313ED8
:101D40003EA9813EC971D9BD47A5AA81204CF24860
:101D5000D85FFF865ACA4D4BA478DC7436668A8DEC
:101D60001486D85F56A26DDA84F9B1D9F0EE181551
:101D700078CBB512294AEF972EA91FF2CFBF18D5FD
:101D80006F408E294E84D646AA7DBC65AE517A300E
:101D9000D8DE6664DC46A47DDE101ED541A68DDB50
:101DA000C43311DB70F0B817D7CCC6A3FDDB343DCC
:101DB000E1DBE0F0281759CCB6A36DDCA42E91DA54
:101DC000F0F14955C48E84C83C0081CA3B7F194E4E
:101DD000AD6BB5D539F1E22F1539C248377980900E
:101DE000C8C1E91287E8D5EA66D6616B5AA9B4DDA5
:101DF0000094E2D21A7C72487782C0A9735F85355D
:101E00003B6DFB02DEA9A13E6486AAB4C33F043148
:101E10001F3FFFA9BB8CFAB184DDC294E9CA219EA1
:101E2000D6D6A15FD2241653D1B08E5696097CD453
:101E3000D15F6C22A4537BAEEE56961FF7C8CBDF62
:101E4000D394D941F512DE2915A9F948A75F57198E
:101E50003764EC12F24A93C3F373095F6A186FCDCB
:101E6000C61289CAC1E4711650AD850847DD8D1DC3
:101E700033656B6FA9553B8E7A8AFBA846A16DD955
:101E8000941151D9F0EF181697CF46A25DD9741F5F
:101E900081D9E0EE081539CED6A1EDD9040D31D99E
:101EA00070EE98159BCE66A166DE543981DB00F09A
:101EB0004817BDCD56A42DDC642AB2488C5FD80EDD
:101EC000487D4005B50920C629B6151E6BACFD79C5
:101ED0006F2C9554935C4EA9DA5F0186D2CACF4B22
:101EE0000A4AEED3A6B9FBE7440E225F0AF1E65890
:101EF0001EEE14DCF255C9946941E012A664DEF4CA
:101F0000D2C0AEE7D7A0995501B0EE4ACE926E444A
:101F100069FD7992057A8012164A938FD8737F6D86
:101F2000C8A4029ECF40EE298128B046107D35948A
:101F3000CD4189912FC981366FDFFF6D48A4D25101
:101F4000B430DECA16C4D250AE67CD24DC5FCCB04C
:101F50008E5619CC6E4422821286E25F47A5E48336
:101F6000F16C2354085C4E45867AB63544637C6533
:101F70005F898C5F1086A9CF86A27DDA94ECA1D907
:101F800000EE28154BCE41A66CDD848AA6DD393ED5
:101F9000D16602BE46C756DD2D0CDEDA715E5843AF
:101FA00080CD29115D18A93F72D39B3ED965A0CA87
:101FB000AC47DF29A12CDEA991F1A287B4CBCF4198
:101FC000863D09F3CEBD928E8976DE9ECE41DF3905
:101FD0000CE176B9998E4275516EB0056109934B4B
:101FE000646B19F35719597B41A66CDD6DF5548963
:101FF0001FF20D949C712861EB2F171B50DD0A72A4
:102000005719CB70CBF1DEDCEF08DCA9A13EB86537
:102010001ECABF1166DE9383825319F3C916445C4E
:10202000D9A2B94BA1BE6F8911F5EA75ACCF1013D7
:10203000E66CAEC7DED86D60D8E4BACD15136EDBA2
:10204000DE434EDB6C605917125C59A3BC4B95DD27
:10205000034B19F329160A5CA7347F3A05CC034BCE
:10206000A1EFA78765C8D9A4BC4B05F8034B989787
:10207000DA8AB2AEAE418E3D7599BD1B0EADC90672
:102080008ECA96206EDBE18556DC12F4D918D55C39
:10209000C9A4B84BA675DF70A36569751CCFAA13D8
:1020A0006CDD64AC56DCF14639652ADFC97BDECCD9
:1020B000655AAEA991DFC9ED38DD41A63E34755FA2
:1020C000DEC891C0C90842EBC97BE2068D5891DA9F
:1020D000950FD7E550E7C3C2E6AF0F62DBF892DD9C
:1020E000CE3E69EFCE8AE902957BD54921F0D385B2
:1020F000E0CCC0116EDB0DF74EDBC55E59174D5EAF
:1021000051CD75050594DE49D1EFF985CC2CC989EF
:10211000267405824648928E9A799ACDC911DEDCE2
:102120000621DEDAC15EC918995ECDCE70090ECFE8
:10213000DEDA915ED165B6CDC811DEDA063DDC2966
:1021400091F1CA85D7BED9A40E4907ABDEDAC25ECB
:10215000DD42D7E30CC68EDA06597ED8C25E5E41F8
:1021600070CCC8116EDB366748F5933ED965FECD5D
:10217000CC11DEDC0975DAA991F1FB8539E379A48C
:10218000DF49A510EF491FF235BB467D68016CDDC4
:10219000D88150DD6F6E181690CBD9A2764A0E8882
:1021A0007FB991F16186A8CA2E2166DE6545AEA988
:1021B00091DFD8FA34DDA9FC4E29053AD13E91E1F0
:1021C000511A22B5B9F1DECA14B4DECA9513D8FA91
:1021D00054E341A6DF298D42A24873E1AC08D6CB77
:1021E00086A4222F05043DA91FF28B8C6A66280164
:1021F000E22A151350DDDB940AD55BA959A3324AB4
:1022000095938D48913E4A4589BE86A266DE549CD0
:1022100081DAFD5FD5069E7D50056CDD5B0D5C8926
:102220001FF22A953FDC96A22DDA8DBE91DAF0F1ED
:102230003586BEDFC134773D93AD0D59131E571956
:102240001E4EC392E9CC64D691D819F3181891CDDB
:10225000A512A47805B43CA91FF29C8CDCCF011711
:10226000ED88AE97DEA8723E940664CA1A183DDA6D
:1022700054E056DCED5F5D1BE4CF5DA84478759FAC
:102280004DDF9DEF5C1C600BBF5942DA6D12AE480A
:102290002282E2A8D5ABA6405D588490BEDA995E52
:1022A0002FB44904B9F1449E7BE1BAD824F4D51681
:1022B000A3C9A1B04E4A9693B166106D48905ECD09
:1022C000FA11C49E6BEAAEA9F7B33FCD28CF5AA747
:1022D000EADA9844B6D6015F5AA93571B6205D5442
:1022E0006572D44919F3D8B468CBC9A412496BC03C
:1022F000B513013E2FDA0016ADA271DF116C4DDE71
:10230000F9FD3986157AC640DEDE0CB6381CF78D2D
:102310003965F40BBF5942DA988FD2D824F53124AD
:10232000D05F5835ED7805B2D6F419F34586A1BDD6
:10233000D8F1EFCC05B64DCB23E0511AC05F5A93CC
:1023400070CB12A2CFA9A2E1C9082EDD41A65A4A3C
:1023500098D34CCB9C40DA65C9DDC99466DEA4CC29
:1023600091DAF0F15FB4E6BF2CF16CDDC76A9BAF88
:10237000E98D28E4F4BF28F19F7893EF0D4E998101
:10238000827502BF2BF1AB78931D0D4E99815A795E
:10239000510EC8083DDA540641D819F34586FCDDD4
:1023A0002A946CDD34B456DC0D5F5C07CCBE47A5C7
:1023B0000D5A8D26A24873DFAC08B4CAE62266DE49
:1023C0008D54E1DBE0F0281727CCB6A36DDCA45CCC
:1023D00091DAF0F14955D9CC84C83C003BF324484C
:1023E0007D5F5965E4BE6ED12C4A867DE848543E37
:1023F0009965FCCAB94B554AE5782FC85CDFD2060F
:102400009ADF19F16CDD9B3C75C8085FC9069FDF38
:10241000CB20EF661696DECA9ADF31B4E6DF4BD1E9
:10242000EFDA8E2CC066A979DB9CFAAD5670E129F3
:1024300015D19647EA7C649A81A8C9406DD994AFBA
:1024400051D9F0EF181659CF46A25DD974DD81D964
:10245000E0EE08155CCB46A47DDC54C881DA20F0A0
:10246000163CBCE9C094E94A80683EC882DF178602
:1024700071C808F1AE2993E34872095FC906EFDF1E
:1024800048A7EFCC050651D9F0EF181693CF46A216
:1024900066DE440191DBF0F0381765CC46A47DDCA4
:1024A000543281DA112E581765E997C81477FFAEB8
:1024B0003248213E4965919E87125FDF3BBC1DA9D2
:1024C000613E57193464BE12BECAF64A15C89ADF77
:1024D000E30682BE47A56484B058A94891DFDA06B6
:1024E0006251D82EEFCC0564D7C8F98D4306EC9E17
:1024F000D8A2675823DAC652A3751978E301CAF146
:10250000EE294D0D87572C73027B8A7146A16DD938
:10251000948181D8E0EF681617CFB6A14DD9648FAA
:1025200091D9D0EE511A29CD56A42DDC64BE51DBD1
:10253000DE15273CB85FB512BECAF6BA904812F451
:102540008A6512BE47A564847D48DEC8A2DF4A1BA7
:10255000C1DDC994E7CA94C781D8E0EF681651CFAE
:1025600041A666DE74F7A1DB20F16818A3CD96A41E
:102570004A4A3172D01EB0AD27861ABE3BF45E2A9D
:10258000986172D834915175F4CD5AA78ADA9818A7
:102590007D7A294E5C1BEACD5AA874DFB10C48DE67
:1025A00034916175B2C835A474E0163D72D8A2F5B5
:1025B0006CB592AAD8A77ADC162E5B89328F61752A
:1025C00051C845A4EFE081C67EC8358E5175DEDD69
:1025D000B5127ECAA7F637BD221E42863209B66002
:1025E0004EC981E2BEC90F725279FADC66709D98BD
:1025F0008631C048F38D35A01E493104CDA89669B7
:102600005FDF748E5275BB91D9F13C4A3357E106B6
:102610000B5F36DFEB116992E078146A78B4151E0F
:10262000CEB572AECDF16609C1B86F793252D2B56E
:1026300028AEC1F15F0905D77E3739896908A10144
:102640000670BD981B757FBE0F5F38DCB311C99251
:10265000E17995A3DCA991E1D12ED86E5901DF294A
:102660000DCAA048FBB748D4E8DFCC476E390989CA
:10267000DECA0F5F2AE08911C992E079958DDFA942
:1026800091E1652F0DF7CB41673DA22DD6E49981ED
:102690005A7913BE4AD1E97E9569D4AC990D91322D
:1026A0008FF779F1E82E1547DA52A267CB9C3D5996
:1026B0005505E82E09AED1E2F0EF1816A3CF46A2D9
:1026C0005DD9745356DC20F1681805CD96A45E19C7
:1026D000526680FE9D5F57196A4C539377CB053F36
:1026E000E04880BDC8D4E8CA6223E42B160D3AA89E
:1026F000BF5F98E4AB1147A53F5A43FA311690AD3E
:102700005719294CB1124DA08446DEC8A13E4A1B80
:1027100086CBD140E6701C82D9DCABE1D2089EBEEC
:10272000F712CDA8046A50DD3C70D571BCBE27F20B
:102730000C4AD46C01061FF22A96845F2670DD983D
:1027400093D5755B933EC918225FC3F1EE29E9AFBB
:1027500050DD075E581559CE96A22DDAA4CC51D87B
:1027600019F34586B85FED6B1D98A2F942DB240C86
:102770005B33AE5FE96D1D98A2EB42DBED5FF3E0EA
:102780003F1154A37ADB6186FC13D0AD661792CC5F
:102790005CBF72F76194F012D0AD661780CC9512D1
:1027A00006A444EC43DB2DF025860A04F6607BDBAF
:1027B000A12349E7270C25861405F6606FDFA12DBC
:1027C00040DBF7B948D4D7DC59936EDB43CF56DCF6
:1027D000E0F028173BCCB6A36DDCA44891DAF0F109
:1027E00035863E5F2AF1B829BA09BD6753413DB32A
:1027F000FEBE67F49C38F71B9967823E20B3EDBE9E
:1028000038F1BADC989302DA24F55F1BE0CC5FA8BC
:1028100078DF818144DE2EF4651707C919A76ADCC9
:10282000D5B6A24847E96E10FCD08A9FA12916B9F7
:1028300042DAA2F5E01B6ACDDEA8F2DF01AECADE05
:10284000ABF46517DEC9B4124CA284044ECB72AE51
:102850005A1B50C82F34073FA4FF7AAF3AE5640FE4
:102860007CD4B7124CA384284ECB0F5F36DF911176
:10287000C8F1DECC8374B21310ADCB65FCDDB712AA
:1028800049A384CC4ECB0F5F33DF751159935C4A5B
:102890006ECBA10651E147867004B660E229051CA3
:1028A000A048FAB748D4B6DCB71246A284E24ECBB1
:1028B0000F5F34DE4B11C6F1DECC83BAB41010AD1D
:1028C00059070C5FCE6BFD9861C843DB5BF3327C2C
:1028D0002E5FA6695D980B378148A98D661744CB9A
:1028E000A008DECC83E4B41110ADD0656CDD67B810
:1028F0007BEF9D5947E39341D330E1F4C1F3EDF40D
:1029000009E0D6E62A0C2816C7CF56A26DDA849FB6
:10291000B1D9F0EE18151ECB86A43DDC711C50DD3C
:10292000C2711786A304D6608129612ADC662EF065
:10293000D31ADBA9B7124DA18476D8A9F05FE1B410
:102940005DCCD3A6474005C4A048FBB648D4C9BE59
:10295000C9942C4A49C38248938D6617D6CBA008E8
:102960005C4A6738A10621E047868B05B6606ECBCE
:102970008370BA1210AD6908865FAA6C5D98069FD5
:10298000DECA0F5F29E0791159935C4A73DAA10618
:1029900091E147867909B660E0290518A048FDB5A0
:1029A00048D4B2DCB7123FA284E64FCB21E0478681
:1029B0005707B660E82A1755CFCA91E147865B07EB
:1029C000B6606FCB9547A048F4B748D4DDDC599387
:1029D00029A0649C46CBF0EF1816D2CB86A43DDC30
:1029E00071E050DD9D721786E6CAA1243DDA547E5F
:1029F00056DC00F04817F9CD56A42DDC646E5E99C4
:102A0000DE15273C885FBF3F5A4A745CA10621E06F
:102A10005719FC4A539377CB53185FDF1FF2DC97AB
:102A2000A87D9805E42B16C73AA8BF5F98E47111FA
:102A300047A5A75B6D1B904812F45719AF4CA1270F
:102A400077394D4250DD9D724186A509B660DECAD8
:102A500008614EB9933EC908A05FA6685D987CA343
:102A60005B89A08BCCB56AAECBF1DECC05ECCEA9F0
:102A700012F4DF1AEC71C138F5DE0CEEC4CA9AE12B
:102A8000178683C847A5F15B0DAACFBD9D4AD965BE
:102A9000FEBFE712ADA8E4D850DD5A7041B3505FD5
:102AA00048A76CDD18B7A65F2A4E1186A2CAA124DA
:102AB000264A9327EC5B20EE581565CF86A27DDA77
:102AC0009450A1D900EE511AE7CC76A3ADDBE45DBA
:102AD00031DB90F0D81749CCE6A31DDB544F81DBE6
:102AE00000F04817EBCD56A42DDC64785E99112ECA
:102AF00049553FE997C8E3296A16ACA9F05F661704
:102B00008ACBA0086EDB03074EDB7D5EE971BCBE9D
:102B100023FBD129ABF56AAF533E5A651CBAB93FC6
:102B2000DF294D0D8F65A14032B37AB1EC3FB63647
:102B30003A1FD2D8F98D38F631AA26D13F990AC06A
:102B40007489F58E51752F9EC740EE29DAA2DB6796
:102B5000633EDEB3DC50D02F524AD5DA0B6A1A4EF0
:102B6000A5453AEFB51244A48326BEC8F1F32EA8BA
:102B700098E719A2DC498176BC120FAD0F867EDE84
:102B80004BD1E6581E9A54DDF355A1B0DCCD371178
:102B9000524A65111D89975D65451ACFBC13E66CD5
:102BA0009E51DE7DE253834528CFF613DF792E5AFE
:102BB000D6F8A1EF93863F75C1CADEDAF1BDD762C0
:102BC00091F1B585F4CDB3139EDCEDCBAEDB0660A1
:102BD0006E45366E5906CC77FCFD5BA6918C4B6535
:102BE0007070CF1DF56579E6DEC89981FA7966EFD8
:102BF000BA1244A483BACEC89A89D13E7CCF25119B
:102C0000EECA0E28DEDA7D5E3C86EC0EB4608ECC19
:102C1000C5823649055F5908199E55A3594A268D24
:102C2000EFDBD05F6AD537C86B34673907E2DEABBC
:102C300091F142871CC40DFDA277C8DB0A6761438E
:102C40002EB311BEBC3FC634AB673DA9478C6F663F
:102C500063BE739487CCF9BEF967833E00B3BBBDF6
:102C6000873F2F754F6985550C45D8B39DBED63F1C
:102C7000AB2AD89302CA5CE1F4661070EBF1D87706
:102C800085614EA991EFE7870A6E08016079C67BDE
:102C9000DFA9A1EFE2878F486D016009067D5F899A
:102CA000913EF40618DFC4A41ACC30285E6A425361
:102CB0003F8632DFD892354A122AC2DA71EFD386C4
:102CC000B0CFC212E670FC3ADEDCA98D57199E67C0
:102CD00069A2E04AB544DD4851EFCD868CCFCC12D5
:102CE0006CDD89D950DD2E972586215FD9A6DFDEE0
:102CF00024BECEDA8D5FC918835FC7D1E66C8E0B18
:102D00002489128EEA7A86CF0E17E66C8EF9DA895C
:102D10003A3F796516C1B91261E875164CD6016B58
:102D20005AA9CF06B7605CCC72AA39C081EBD1AC8E
:102D300047A3C9A6F67893A30E70BEDF070621C885
:102D400064A29BDAD2D402D863F55719486447A528
:102D50007B8261529548AD5F3606A4DFC996EFCEFF
:102D6000AD6E6756E85F5A1B54CD67A4B3097C6EFD
:102D70004FCB21E0926626BE4DB0EE4A8AE26E4409
:102D800025FD7992957A64699C98C30873CADA5FC5
:102D9000A965E2BE47A50C4C0508194F99812A7612
:102DA0000DDFF792B5DFF23622D869F5D1ACD9A3A1
:102DB000C9A6F67893210E70FEDF47069BDB799A51
:102DC0009FD2D74A50DD15985719D7679512294ACF
:102DD00021D0F3C8CFDF611B55CFD5A277E0ADD0AE
:102DE0006756055FC90677DFCB2CF1549E7BC2DAAC
:102DF0009FF1611CE59EC9A2A54F0DD84FBD138E52
:102E00007279D15FC4A2FADA969E5D89075FC9061E
:102E100081DF9E12EBDC2184A94871DFBA06967926
:102E20003E0EDEDE1D0A50DD61972586E75FB81293
:102E3000DFDC16A0FFDAC2F16886F25FC120F76816
:102E40008140BE46027D3794B741A5695A989ACD14
:102E50004ACB21E05A0744DC5A9307CA3FDCB1A6AB
:102E60001045361899CDF39407CC7D6A6DA9FF6D96
:102E700048A448CBA80846587E66B4130DAD5A073F
:102E800090DC9C128BDAE2866EA991EF0587067DB5
:102E90005001E52915755C89973ED965655F4BD171
:102EA0004C5884BCD4DCF3551B8647CDB4A48B4A64
:102EB00094EE4106F33E39655650B62F2C5764A167
:102EC00077A8413ECB935540271FDD6788FD4F4CC7
:102ED0001A4E2153C4CC55147EDA59D9DC66A13E72
:102EE0008F6577CBCEA6A8DE661EC66691F11388E5
:102EF000787D50056EDB51F45889A2AED918345D47
:102F000066847EDC51067ED8E660CBB49CBE7FF141
:102F1000F3DE0C8664DCF255E1B49ACD8214E66CE3
:102F2000BED1CF19A1F11488072D69A42B4C87EFCE
:102F30004EDBDE61D168A5BE29A2314B93A9914732
:102F40009140DC6524CFE9136CDD5445DED8876001
:102F50005719385BC8F1DEDCCC5F78DF20144119EB
:102F6000BEE146CF2B0864F691D830EF581691CECB
:102F7000A6A13DD954E5E1D9C0EEE815F3CE36A1BE
:102F8000CDD9E41311D950EE781582CB56A36DDB61
:102F9000942751DB2282281777CCB6A36DDCA40CD2
:102FA00071DA50F19818F9CD26A4DDDC143EC1DAAF
:102FB000C0F108187BCD96A44DDC842898F81FF248
:102FC000D4BB1E5F19A2144CE1EE26DDD1F1FF88BF
:102FD00000CE0312337862F6826B51EF1F88FBB18B
:102FE000AB3F802977CB50A5243EA9659CBEBE127D
:102FF000DFDA04F2DE7D625326A8F3AA06D13B692C
:103000008EF5128991EF178898CF8614FB4AAD147C
:103010006742C1F11888B6CD87145929AE26614E92
:10302000F1531286A106DA514329081AC04E715293
:1030300091B562AAAD404E297336A156F3AE46D47F
:1030400071DD69946EDB7F451116391ECAB57FAB01
:10305000B21244A4831ADEC8A98DDEA8A5AEC53479
:10306000564A4697DEC8A2DFE6864245701C274ACC
:103070000A2ECF09083ED8C1E759C905594A7370CD
:10308000A156F3BD45D4B7DD6994594A6BDDA3065B
:1030900021E04D4525DDE9945F09C57B311690ADF2
:1030A00057E4BD112D41CF4E8E59FF8651F11F8837
:1030B0004FCFA6A23DDA5426E1D8C0EFE81631CFB3
:1030C00036A2CDDAE45411D850EF7816D3CF46A209
:1030D0005DD9744381D920EE5843D5CE56A176DE12
:1030E0009F21BED8C8613965030EB460DECA05DD14
:1030F00037BDF1EF008806BEAB6C5C98057CDE2D19
:1031000091F1C5858BB2C9A4D8498D9EDED8C8611E
:10311000D8E492CDFE14DEDA3C1ADB792151511A43
:1031200058CA56A36DDB949151DB2282781811CDD9
:1031300006A4BDDCF4A621DAA0F1E81893CDF6A42C
:103140004DDC84D0DED8895ED916335E70407E298E
:1031500015B1DC62A4896916EF5D6D41873D15CC20
:10316000924891F11486739E69A2154CA95DD6BD53
:10317000F1EF008884BECD63FA987374A156F3BD55
:1031800045D413DDC9943EDA3C8AAEA9F7AE46D4E5
:1031900080DCC9A2154C14C8DEDAC8615719EE46A6
:1031A000B6A24DDA4434F1D8B0EFD816D3CF26A268
:1031B000BDDAD42261D840EF5815B5E046A17DD9DB
:1031C0009D54A248EC5FC90654CFD994EADC8D5ACD
:1031D00091DAD98DD916885FE9F611296E31ACA93B
:1031E000913E4E45C9CF74A27FDCB678D1169A7550
:1031F000127C7FB8DBF16CDDE8EA9A792A4E0EB5D5
:1032000091AA40D1DEDA4505CED8D260D918CE5C7D
:10321000C9A41F4B8DD5DED8D160D916DE5CD9A4E8
:103220001E4B05B09C4BE0EF511A05E9B1A546785D
:1032300075D1B046107D2BE4C411C992EFCAB48099
:1032400056DCC0F0081799CCA6A35DDB94DE41DA0A
:10325000E0F12818D4CF0317DF79EEAFDED85C6435
:10326000D9162E5849A897390689CEA9A1F1958B70
:10327000F0CD02179D090697DEDA5B64C966E9BCEA
:10328000D9A4AA4F0516154FE1EEA786DCBBAC3FCB
:10329000B1297ABD5EA9213EB2663C70F83D7E0937
:1032A0007CA04FDB22F0C886A2C3A91269E655A212
:1032B00044D4E16B5AA97B0697607BCBA13F31CC0C
:1032C00089E7D20E5ED769F18E292ECA50DD159896
:1032D0005719CF679512294A245AD0CA20BD68D4FD
:1032E000ED4BB903DF2905743448A04DE8748ABF5B
:1032F00047A55449646491D830EF581603CEA6A16F
:103300003DD94493F1D919F3781735CC06A3BDDB29
:10331000F48321DBA0F0E817B7CCF6A32DDB648D96
:10332000B1DB10F06818E9CD96A42B00639A72DE29
:1033300020144119EAE146CF2B08A5AA154F41EF09
:10334000958B7CDD6494E52BA578664E1A4E8945F5
:10335000D0CFC312EEDA1056CEDAE961C918895D12
:10336000C9A2104C15F4ED4AA1F12588ECCD9214B8
:10337000DE291593824891F12888EACDA914FEDC54
:103380006682EEDAF3615917605D59A3454C951DCD
:10339000DE4B31EFEC86A6CFED128EDC5F9E7EDA3F
:1033A000EA616916105D79A2134CB538804A31F193
:1033B000268832CDAA14EEDC69BAFEDAF661F91875
:1033C000265D59A3484C9555B74A21F0CA871D9EE2
:1033D000EBFC11293F52F7CEFC4BB7B33FBE373F52
:1033E000553734CDADA9D08C296D18BEB39447CCD8
:1033F000A41CDF67243EDAB3D2B678F19ACCB07C55
:10340000D9A4598CCC655E705DF107CE3F88B3D8E6
:103410000EEF030CBDD9B1984DCC581AD3D8ADEFEF
:103420005A1C8D5F012CB7544F2809B6151ED1AC1C
:10343000A979CD2CF3540A01CF4C1D529545D5DF07
:10344000B5927EC9B6C58C489EEFE516BD5FA12C2E
:1034500057545452F46EA85BE91AE0713FF1E658F4
:103460001E7EF456CC7DC31AB9A9F5122B4AD0E8BA
:1034700002CE1FF299BE1D5F3512A9CEE1F8E448D5
:103480009985C08204CBD1406CDDD5B2C548BD5F03
:103490001086245F47A513812098F248E55FB61691
:1034A000DDCFC4A2FADA93331371ED5F14865A5F4D
:1034B000C994EFCC2736EDCAE65FD61620CF58A8C0
:1034C0005FDF1250C2DA035F7A07EADCA69256CEBB
:1034D00058D0B3DA0DF11E86B5CF35A26FE0F0EF0C
:1034E0002F4C094EC96576BE47A5AC8220ECF24848
:1034F000055FA90685DFCB92F1CA936FEB711FF2CE
:1035000066BEDE5F82125D380631C14E454EC9BDD2
:10351000815B6D01ED3015F75F899246F206A4DFFD
:10352000C5A47DA867C5AEA97F6CC8A38250F62F3D
:1035300087CABFB2711650AD830813DDCDF1EE29F5
:103540000D4FC757BCDF050611C8F59409CCD34110
:103550000157278E52750F91A4925CCA666DAF4CCD
:103560006252D66BF6BE47A5C15C05FAB04B1FF29E
:10357000EFAD62CC0317DEDAD07FCED85D644A1C93
:1035800010CD0517DEDCD08172DF2014411950E127
:1035900046CF2B08640491D830EF481573CE96A11E
:1035A0002DD94433F1D9B0EED815D5CE26A1BDD949
:1035B000D42161D940EE511A38CF0317E079EE4B90
:1035C000DED85C64D9168A5849A89739062DCEA949
:1035D000A1F1958B54CD021766DE073BDEDA5B6402
:1035E000D36E70BED9A4AA4F057A154F91EF6887A4
:1035F00060CF6913EEDC79F5DEDA04605719015FFC
:10360000C8F1DEDCEF04D1A6B04DAD6602CABF1131
:1036100066DE0481D1DBB0F0F817A5CC86A33DDBD4
:1036200074B3A1DB20F16818E7CD96A4DEDAD029C7
:10363000CED85D64CAB5A75B4001C509F5AD0048A9
:10364000DA4A1B65D4BBA03FF1297E6576A2D38CF4
:103650006C65807072F20177B7B9ED675945CDB3EB
:1036600023BEDD3F5E2995871A8999817A75965F19
:10367000AA6F5A9805F4D66A6A533E86FCDFD89240
:10368000524AA5026FC8936DDCA413DDC1945A2A77
:1036900006A3C14E2D4EC9D9001D4FD1813705A1BA
:1036A000CC4E3552C9E13112D094E6CCED2C27C86E
:1036B000085FBA08D4DDC138D546052EC6661FF2AC
:1036C00099BE1E5F8212544A054ACFCAB3E1FC0874
:1036D000DF01566080DF0737CEA9F96C42A33ABEFE
:1036E000B9F12C5764FBF647CA7CCF657CBEC11F7D
:1036F000F76705DC595C1952015477B8DBF16CDDD2
:10370000E81250DD396059174258C9A2A94F159ED9
:10371000124F12F5D9185A58C9A4A94F648C91D8E0
:1037200030EF5816DBCEA6A13DD954BBE1D9C0EE8F
:10373000E815BDCE36A166DEB4AB61DB60F0A8173C
:103740002FCC36A3EDDB24D5F1DBD0F0181791CCCC
:10375000A6A35DDB94C641DAE0F128185C8E49E14E
:103760006DDB52D480FE914A91B3E8BE113F6833BD
:103770009891F46DA14DB2B3E0B3303F7E2DA751C7
:103780006F652EE15508545FC4A28B4A0DAE57BD3C
:10379000AE1E31B47B2FA861E448A35BDED80B607A
:1037A000CDBB62AB66C856DD7549B046107D2BD5E2
:1037B0004D11C992EFCA7136A3C8A2E1C90891E1BF
:1037C000C992EFCA1198CB09A2E1C9084CCFB31333
:1037D000EDA80540A44B331E3965055FEF611B98CA
:1037E0001170DA7FC952783C10CAA7205D6867B0B3
:1037F000A20691DFDA061ADFB492EFCC057E71F6ED
:1038000091DFDA068803DC51EFCC0588D2D8A0BD61
:10381000D518169EE5921BCAF28B22DBC43E039A92
:1038200028AE10D14ACA82A63EC882DF41724E61DC
:103830003618673DD5F5D46495AED965C05FAD64E3
:103840005A9835C3E5691A528F45CC0DD5603A4A6E
:1038500091C04EA9116D5AA45E0B5560564A05DF02
:10386000CFC9014DD89B9EB3D617BF3A0D4A29B494
:1038700091F3E1B45F7379F19E29D59B50DD78987F
:10388000B486FE5FFD12E670FC74DEDCA98DDA867C
:10389000BB47781AA270BC6A1EDC658D5719F964A3
:1038A0009512294A4DAB8757FB7C44A34ABEBCA561
:1038B00045DD5C2799DDFBF31A7C625F58A73ADB94
:1038C00053535789095FBA08A8DD4CD10ACA424E42
:1038D0004FDF8DF0B71775CAA5925BCAB74BA3CA65
:1038E000FDE13F654B484001AC18057A144F928EBC
:1038F0006279FCCACD2A4D0B07C947BD1FF252A001
:10390000EA9CC9A2FC4B073757BDA41E3B708170CF
:10391000BAF1FD7727FF9467B43E23B3ACB6E23F1C
:103920001029400D5EA9213ED2664270383D264ADC
:1039300089A78A483EEF8616755FF1FE7E88C038FB
:1039400057BD7B1E4586A851B63046587E52B046BC
:10395000107D33DCA811CD92F3CA2E5A16526A6933
:103960001386C879DE0EFEDE3F461EC862DFAB0658
:1039700003DFCD20F3682B68E95691E1DA08DCDD3E
:10398000FA94C6DD977DEBDCB8F3E01A0BCB5FA5AC
:103990002F401A10DACA17FB69869DC3191D74E6F9
:1039A000D5AD4F6D7445BA65EE501E2F344A123EA8
:1039B000C2D80D5F08863E793E0EDEDE1D928B4832
:1039C0003DEF7CACE3A379A6A178D8E450DD7898EC
:1039D0002586195FAFF113DE2C4CC9DC98F3331A3E
:1039E00031A9BB12F3CC0964C248CA5FD1AC99A318
:1039F000C9A6F67893610E70E35F681BD1CF74A2FD
:103A0000ABDAE1920CDE1FF24DBF04CA544A3A4AC7
:103A10005010AC48A8E1CF08170156608429B5FFC3
:103A20009C47E47C51198742F82D6079962857B954
:103A30008F2DA916155C39A2804B05DBCEA91FF28C
:103A400097BE62CFB8148EDA774A1ED804619916F1
:103A5000A45D47A562832B7927CA9BE1E408E57A38
:103A6000F1FF897738856567528A9AB1439C78F16E
:103A7000995E8D87248991EFE787FB6E4001D3091A
:103A800090AC4EA95A3F99658CC1B91263E8758212
:103A90004AD6016B5AA97B06B760C4CAFC1CD66E15
:103AA000885BC91A3C71B11241A282E47CEC448566
:103AB000708282CB0A40B178932D3973ED5F148602
:103AC00026BEFCA605DE1C52D9DCFBF31A7C525F35
:103AD00021122A5562C99E47E27C159101422DF8B8
:103AE000D1294BED895771EFE8879ABE2B28D15029
:103AF000B10597489779E090445F45D1E6701ED8AC
:103B0000D852A869719C3F595505C058F8125C8974
:103B1000713EB96594BCDAF16CDDDA14A648F4B7ED
:103B200046D423FF9F1272DFB2B862D826F54586CD
:103B3000D245BA1C2D4A2F10C9B4B1F303B4C85FE3
:103B40000992AFCAE7C42DC8956DDEA4EA41FE30E4
:103B5000DECC16D0FCCAC4E14D45EFCBEEA6F5DEB7
:103B60000CF454DCE355DE08ECDDC23DF76DE96E84
:103B70009245EE7A7D8625BE2F1DD565DFE8BFBE56
:103B8000075F2F927343A36B5A98E50E2FCC727385
:103B9000BA8A9BAA07D1D24A7395A155FF6A48A158
:103BA00088B57AF1405778B9D66E885BC91A3671F4
:103BB00047A5AE826E3404C85CDF53B2A2716C407C
:103BC00092782EC2C6481FF24DBF1D5F64A29BDAD9
:103BD000D24002D81FF296BD435F0F40B178EDF09E
:103BE0002766085F8908B7DD2B94D1CCDDC2176644
:103BF000938DDCB45171FD401A4A52FA50DD2E9774
:103C0000F486BE5F8312544A6552A20662E18908B7
:103C1000AB7E30018A2AC6250C4E2D4EC9D9861D91
:103C20004FD19137C51B0D4E3552C9E1BB12D89407
:103C3000DECC05A2424A998152753B9F3D124C55FC
:103C4000845D8948B7B305D405CF15A26FE0EDA216
:103C50001E7667655279A59EC4F7267707BD8667ED
:103C6000D96A22A1925FA76A5D98A5EA6D6E385B5A
:103C7000791A56517C308BDCC1EAA948F96B42A213
:103C80006E51B63048A081C88848A2F455160ADFA4
:103C9000DC92074ACD8E0742DB5FF3AC0BA3E9A6AB
:103CA0001878C5220FC873DFBC062E51DC300468BB
:103CB0003CAEDECAA2E1EB080BDD4DD113DE2C2AAF
:103CC000C9DC98F3531A14A9DC94E2CC5BCCCADFAC
:103CD0009DEFDD1C556E4001E109A95A6BC871EFDB
:103CE0001B8792BE2B28D150B11DA748F779409071
:103CF0004F5F45D1E6701ED0D852A869719CC75954
:103D00005505C058F81A5C89713EB96584BDDAF171
:103D10006CDDDA1C8848A8F475168DC979F1E0E8E5
:103D20002520DDD6616BDB24785358359F5ED62A7B
:103D300057BD551EC9168A5CC841873DDAA819DCF3
:103D400066F3901A419E5AF1B3DECCDE44DCF255A4
:103D50000D86DA51D0305A4A6800A30676E7BF0EC6
:103D600043D37D9E8460BC60C2B9C23E049A5EAFFC
:103D7000B5123EA4813ADEC8A2DF5D9B6958650595
:103D8000574A6D98A742E05F64450C45DE1C7609F2
:103D9000D5041FDC70AD3A65634BC9015A4A65C44E
:103DA000A20691DFDA06B2485C178A3D20AC765253
:103DB0004A691286B19ECB2CF154877BD1A6B045BF
:103DC0003D862C51B63044567CD4B4130DAD9A08C0
:103DD00090DDDE1060090537CEA9A4E1CB08F19E85
:103DE0009E1201A242AA0BDF1EEF6516BAC9EE129F
:103DF000A8A7E1BC03CA5DE1CD066FDFC561FC98F1
:103E0000F100B06DE85A2919F67212A7EBDA219E7B
:103E100002DE9179DA908A5F0D389546C5880A6688
:103E2000D85FFF862ACA2E4B004A162A50DDE0983A
:103E300069940341E5921BCA96AF62DA3FF10D86A1
:103E4000C851D0305A4A6F19A20651DF9A06F1B90B
:103E50000650B9500EA4A248F1B945D47CDF78923F
:103E60008264BA684C5F24649579965FA5645A9819
:103E700005F0CFC8A1F3CA1AE71147D17F5EB67A21
:103E800017B941F36A1AB911B5124A9C81C2DEC84A
:103E9000A2DF4B4514BED9F1524A7394A156F76B79
:103EA00040A24804B560EFCC052A9748485D4B45D1
:103EB00030BED9F1F1CC07349A48996DE2A4385359
:103EC000DE2EE8A3218A50DDC463FC194CCF171203
:103ED000165F8D27928491EFF9884ACFF814463601
:103EE00005DEC04EE24E4874606DD6188A390ED396
:103EF000CF4C354E2B65F59EA9F15F09661DDED8C6
:103F00005A5F319C55AEA9A4A74A842CB9B401F3D9
:103F100033D8EF11C9926CDD64164EDBC8615719B6
:103F2000504651AA600905C75C8991EFE68720CA0F
:103F300084216DD994A551D920EE5815E3CF86A2DE
:103F40007DDA94D2A1D900EE281585CEF6A10DD93F
:103F500024C1D1D990EEB81507CE06A19DD9B4CF12
:103F600056DC71EF668716CF5713EA31168D50DD98
:103F7000BF61A916D75F39A2024A0D5C29B491F33B
:103F8000E1B48CCA194A7EDA20886ED8AD5F8916F2
:103F90000D5F19A2FC4A93035A731FF266BE1ECF2F
:103FA0005413EEDAA3A7D852A869B365DCBE47A5BF
:103FB000F883E520FC4B8885B082CACB8212E65894
:103FC0001EDEBDA9776DC0A422CBA808E4581CD082
:103FD000CEDAA65FC918425F59A3B14C954F0C4A7F
:103FE000913ED965385FC9A41A4C1578E34AB1F1FE
:103FF000078842CDF614EB2F171950DD7471C916DE
:10400000EE5C47A504718D9241DAE0F12818867DB7
:104010002001FA2AC627074E2D4E89D9441D4FD1BB
:104020000137C51D044E255289E17D12E9A27A4C63
:10403000270117BDD98D1965F451943028A76170F7
:1040400007CA59E198455C7181402E2925B26B89D8
:1040500091EF0587D56E5805C458FC449048996D7A
:10406000E2A49C5F7AF14C58847664DCF25531947A
:104070008941A36B5A98F6F43ECA9BBCE5D451B172
:1040800076F83A4A961362DA3FF17C08AEDD5810B2
:104090008709519C8356DD6D26A4520A9560184A03
:1040A0000D8629B491F3E1B4A6CA194A3A4A50AE32
:1040B000D6CAAAE1F3080DDD5CD12C4A0DB2C75671
:1040C0000D5F33E3381166009D30B6487ECAB43EBA
:1040D00015940F41E3A63F404DD68756DBB825D453
:1040E000F9DC51933DDA547641D819F35818F1CDE3
:1040F00086A43DDCA9156EA939797A8E96B139F17D
:104100006009EB0C29563BF32B7C82793E0EDEDEF8
:104110001D3E50DD6197D486C0718040FC4A0B3053
:10412000CF66B48DFBB49A5F84127E2CB7C311AFF7
:104130006A40571930649512294A05A8AB4AA1F183
:104140003F88E2CDBE140EDC7D4AC048918DDAB4C2
:10415000F371FB401A4A525672A6474A906F01BC4F
:1041600047A562836164954891F13A88FCCDBB1400
:10417000FEDC7870EEDA05612816B5CF56A26DDA4E
:104180008D1411DB70F0B817F7CCC6A3FDDB341D1E
:10419000E1DBE0F0281779CCB6A36DDCA40E91DA50
:1041A000F0F1163C7AE960A86DFF7D3F80F6201C97
:1041B00016446C5F58A7F72982B84FDBABF3327C0B
:1041C0004E5F40707D98F2C6BFA9013EC0ACA9A366
:1041D00039A6A270DAF21852686948A926CAA7352A
:1041E00041DD1EC4D9B4A1F36BACD979612C9754CD
:1041F000F3E6214E2A521F8614CC4CD1AC60E4F871
:104200004FBDE75F45178849D618773D5D0CB2DB97
:10421000161E779C2B595805364A81896FDF20BDC1
:1042200068D42ACA882D2F656919AF4C1A55810A9E
:104230006BDFD096E8CAD8A87E642282D2247E732F
:1042400058358264B1C677C860DF7224DC73583594
:10425000A3E8D57E4F6DA679E60812C1C93E6F6D01
:10426000A8FE6E642282CCA0E6DDC7FF0677088F29
:10427000E667AC4CD2B3E5BED03FBE29F59DAB4856
:1042800021E01D8698CCB2124CA283C4AAD90C5F3F
:1042900034DE6C11FDA27E29B5791EA9613E58B2AB
:1042A000B1794E0E6EDEEB83296D7178BA8F657031
:1042B0009435254555211A6D6682959DE156ED4050
:1042C0000DA84DC249B4D45F4A1C365FA7205D6873
:1042D0006DDEA756F56D3EA459BED9F1EA5822C04D
:1042E000B6460A7DD9064FC1D93E6F6DA4F94ABDC5
:1042F000923E4A457BB1D1B0DE7696DF7646D75FF7
:104300002081C05F48A85A4A7306A156F96D42A49D
:10431000F451BC30DF2915F7D246AE7D3194E74128
:10432000C99206E825084F6D2C745D79ADBE48D161
:10433000ED382DACDE642282819475011660A1797E
:10434000D64457B9CD2D1E8665CD1412524AB6DC1F
:10435000114833815A75657DC005EC3718BD3CAFF7
:10436000823E8C6534BE47A54E831085CDA9764428
:10437000BA6531BE19F16CDD7543588980BDC8D46A
:10438000E36E38166739004877DF2014411950E191
:1043900046CF2B08640491D830EF581663CEA6A1FF
:1043A0003DD95433E1D9C0EEE81525CE36A1CDD99B
:1043B000E42111D919F3181867CDA212384AB12E89
:1043C000BC661085308236CB5B27A23DB65AB0461C
:1043D000107D31942D4169928FCA901BBEDC01F390
:1043E00037941D41A1205768A5686FC841F36A1A28
:1043F000CF11709486CC966172D822F52BB40179D6
:10440000AE0E4EDE97131ABD42F53794F341A1204C
:104410005768A5926FC81C1E291AEACBA7205D68B1
:104420006D2EA75631DF7A0618CB68A69D98C0ACD2
:1044300074CA23F4751624C9AB405D706CC0AEDC41
:1044400023748D7975C9A7205D686D44A75691DFE7
:10445000DA06599EA9A64EDE7356A156F96D42A4FE
:10446000E0DFD892EEDE06F2C106AEE1D508B1CFAC
:1044700086A266DE0995DEDA5B64CA65FCCD23128E
:10448000ED38246C3AA81FF23F8584CAB612E6378D
:10449000187150DDDB94CD7409BED9A4AA4F050C68
:1044A000154F19F391B4216E4101A429053C584DD3
:1044B0007B3F5719E75941A62DDC64289EA9E13EB0
:1044C0004786232EB9814AA38386DEC891F14F899E
:1044D000B5B947A5A05013A0D67F0A5259170A5F55
:1044E00059A3314A0574584D7C44896DE2CA1A18A3
:1044F000E829151350DDDB94C916FC5A22F7A129CF
:1045000093950D4E91EF4F8963BF01F26CDDD80892
:10451000DEA91FF29BA797BE40D1E82915FD50DD0B
:10452000DB946A1BE0689816B73F05CB81D8E0EFB3
:10453000511AFDCD96A42B00638E72DE2014411912
:104540009EE146CF2B0805D6584D7442F7860701E9
:1045500016608429B5B550DD3065D1A84DAF76928F
:104560007E290DE6CEA99389DCB0F0DDC09497CE0C
:10457000A591D4CCA13ECBB0EB75D594E9CCC0FAD3
:104580007EA99DE3D9650475DA3CFCCC120E9048F7
:1045900012F4B366E0BE02FFB129930F8568923E24
:1045A0004A4522BE65A76DFF7D3D80F6201C16445E
:1045B0006FCF86A266DE542481DA1FF2E2A7367D31
:1045C0004005A0090554E24B9981EA7926BFBDF167
:1045D000022A393390A9E53E8C655BCFD8A28BDAED
:1045E000C270DC52A469DE1A6FCBC0A4F7DCC6BF70
:1045F000FFBE3B1EC916EC5AD9A2794DA56C4A4D97
:1046000041EF5E898645DA1CEEDC940FDEDA1F622C
:10461000C9160E5AD9A27B4DA588484D41EF608935
:10462000A245DA1CEEDC9623DEDA2162C916305A86
:10463000D9A27D4DA5A4464D41EF6289BE45DA1C45
:10464000EEDC9847DEDA2362281685CF41A6DEDA53
:104650008B55DEDA1662B56618BF47A5B15006BFA6
:1046600056DC21F0508976CC4F156EDB8A69DED896
:10467000CA60A916CE5C47A51F6905EAE24B1FF286
:10468000BFA58CCA1533E66CBE7950DD3881D1A840
:1046900089AEC8F1DEDC8C93FAA8C53E2C706CBEE6
:1046A000CFF15FD99237DF19F255511A63CD96A435
:1046B0002B00630472DE2014411964E146CF2B08FD
:1046C00005505B4D7C41F786810116608429B52F2A
:1046D00050DD3065D1A85FAF76927E290D58CEA906
:1046E0009389DCB087BEDCA6E5DEEF7EBFBEABE122
:1046F000D208CBDB69F1E8CE1519DC62A489BC6570
:1047000095CBCEA6D8DE66F0C2CA9CE1840A2EBE46
:10471000C596EE29073ECD62F43EDE1A9BCBA3A6DA
:104720003F4023A0D3CADF5F4A1B40BF3DF1AC37F7
:10473000D8D150DDEC7FCA65399EC9F18ADF9489F2
:10474000A6DDEF1D58438BE196A22DDA8DD8D1DB83
:10475000B0F0F817EBCC86A33DDB74C9A1DB20F1E8
:104760006818ADCD96A46CDDDB4AD66A1A52434672
:10477000F0CF0317E2798E87E68891EF948BEECF26
:1047800005177F2909BACC4EEA53C9162B5CD9A26A
:10479000064B85046FBD91EFF2870ACFE3135EE00D
:1047A000F65164A8D48C7D657B700EFBE277C74F11
:1047B000CA67123E5965E5BEAC3F4F75037DDED832
:1047C000BC60D916685C49A8BF40072BDEDA645F7D
:1047D0005917F25A59A37F4D954B7C4D21F06C89A6
:1047E000F0CC6D156EDBAAE34EDB37625917C95A60
:1047F00059A3864D9567774D21F07389ECCC6215EE
:104800009EDA9F070ED82C62AFAC5DA329A6D478A0
:1048100005807E4DA1EF6A89B8CF6B150EDAA81B13
:10482000DA46A67DEFA49141C9A47E4D15BE7F4D09
:10483000B1F16B8984CD6A159EDAA13F0ED82E6244
:10484000AFAC15A329A6D47805D87A4DA1EF6E890F
:10485000F0CF6F150EDAAC53DA46A67DEFA4E9412E
:10486000C9A4824D15F67B4DB1F16F89DCCD6E1573
:104870009EDAA3770ED83062AFAC2DA329A6D478E8
:104880000510764DA1EF728928CF63150EDAB08B33
:10489000DA46A67DEFA42141C9A4864D150E774DB9
:1048A000B1F1738914CD6215DEDAD0ADCED85D6476
:1048B000CAB5235B40016E0AE1791E6652AE3F869F
:1048C00001CF98A2CD4A79C6DFD8A2EF98860645D7
:1048D000901C354888158EDCD2F328D4145FFE1264
:1048E0006CDD1FD9C76E985BD91A165FA7205D686B
:1048F0006BAFA506ED5FF3944341E0661B98A57E80
:104900006FC89EEFE51617C9612C9754BCF25D89FC
:1049100041F36A1A2B1165289B50A9EE964812F4B0
:1049200000862CCAD34BF7700CD4CEDC0D5F3794C5
:10493000CF41AF6F59986136F446CC7DF2DA8311DE
:1049400069928FCA12D4C2D822F571A075557E1013
:104950006109B5C67FDC50AD759C675955059EDC75
:10496000D860688620BD68D46C6E581667392AA056
:10497000718611EF9C869670B635C54A5171835584
:10498000DD6A26A1725FA96F5998E50A2FC893DFE7
:10499000DC0683BE5F27754F9D9F474F1D525965AB
:1049A000475F85203B6846A88F54DD6D26A46A03C7
:1049B00092608238B6551EA9613E5719736470948F
:1049C00086CC7BC2BA140CAD09051BDE55257B4D88
:1049D000C1247CC844DF8084FB9EBE124C5884C036
:1049E000B71C0EAD0F866451DA30C029F50D50DDCD
:1049F000AB98BA0894DDAE122A5862E49D1CEEAD65
:104A00000B9FD154DF12A270BCF41EDC658DA9652A
:104A100060B4C6F1EE299383F3734AE17108549EA2
:104A20004B416739CCE54F6A1A4E8D454CCF69151D
:104A3000CEDAA637DED83362D916195A8D002A7716
:104A400046A18267F28A3AB1EF5FDF126CDD5475DE
:104A50006EDAB9606918F15C59A30C4B95CFF34B32
:104A600071EF6D8914CF6C15DEDAAB6FCED838627A
:104A7000F086E45F47A52D83B5EAF44B31F1F28768
:104A800090CCF9136EDB34853ED83962B916A75A3B
:104A9000C9A2884D1504754DB85FDF8692CA864B52
:104AA0007E99B7E36EDABD606918015C59A3104BBB
:104AB0009523EF4B9E44DB65B6CA2A24DEDA52BE4C
:104AC000D33691F11686C8CA61136CDD35CADFADE5
:104AD0001FF2D9ADC4CC0317DEDAD0DDCED85D64C9
:104AE0004A1C72CD0517DEDCD0EFA4A8008C3D6512
:104AF0000F708EFB30292D179467B53E23B3EEBEA1
:104B0000F1FFE97738E5C567B28AFAB142DF16925C
:104B1000554A0592CFC839DF82069845DA1C9F5E58
:104B2000D624C7B9AD5F0286A0793E0EDEDE1D0039
:104B3000C448513E996538CA2E4B034A193C50DD92
:104B4000E0983F8675DD699461097B4ACFCA91E19F
:104B500068E470BE79F1405778477CDFD36C1CA3C2
:104B6000736EE8073DDA54F641D820EF481581CE40
:104B700096A12DD944E5F1D9B0EED81574CB86A312
:104B80003DDB7411A1DB20F1681845CD96A42B0004
:104B9000632672DE2014411946E146CF2B089E1D84
:104BA00044CB2CE06507BBDC57937DCB9D2B47CFD7
:104BB0002BE4640BA8D847A55D4A065BDEDA7B5F71
:104BC000D8745DB12DF26CDD7BC95EA9213E15A9BB
:104BD0000D7A23F1447776FB50DDAA80D1A8D7AABD
:104BE0000DD1E9298EDE464E19528845ACCF5315BA
:104BF000AEDAA0F7386E685BA91A8C71C092F8CA59
:104C00003080E2C8956DDEA4AE41FE30E7CC1F8C4B
:104C1000F5CACDE189160A5A19A27B4DEB3A09B4BF
:104C200071F3BFB4A9DFD7920DCA3DAEDA46A67DB7
:104C3000EFA48541C494FCCC34BAE6CE51EF678929
:104C400010CF5615C470DCBA3EDC878DD20AD4DB97
:104C5000E2961ACE095ACB56B77D00A4D5D9D3987F
:104C600009D041E456DDD27A1AA1A25FFE126CDDB2
:104C70000B4B5EDE325257197C5F47A58B7707934B
:104C8000CFA91FF22EBB89015660E52A85BA464E90
:104C90001A4EEB54554A9815673DC55BB06D1082AE
:104CA000B206D8DFC292FACA2CA8C8481FF218BFB1
:104CB000395FD3126EDC39B55EDAC4605918AB5A6D
:104CC00049A4724DF24420C8A0DFE10A6B5FDF12F5
:104CD0006CDD54E9D748AB5F59186C5C49A4134BA1
:104CE0009572494D11F15F8981DB3396E9CE216AD6
:104CF000F948A75F57193964C012F84A956EE64B18
:104D000011F1008714CD50155EDC9D0FD3AFA33E8B
:104D10005719714D47A5056C938DEE4E1FF27187A3
:104D2000A2BEC9A4C84A0FC7CEA9753E5719D85EFE
:104D300065A76DFF7DA180F6201C1644E3CF86A2F7
:104D40007DDA94D2A1D900EE281585CE41A65A4A23
:104D500005D08148BFB508D474CFD140FDA807481D
:104D60001EBDF05FF194D7435BA7EADA97FACECA8B
:104D700019F3D908F4BE41A67DDC54E881DAFD5F61
:104D80005719257851402C4A931DF96F498D696553
:104D9000595FC820EF66640691D830EF511A71CC84
:104DA000B6A36DDCA43691DAF0F1495561E997C8F4
:104DB000EA4A00B25489D95F9208D0DD47A5056F51
:104DC0007CC0DFDA905FB30681DFC73EE46409D8B8
:104DD000CEBA20EE581509CF86A27DDA944CA1D91F
:104DE00000EE511A185FA7685D98A56A79B41F1E76
:104DF00025865051F82E70DFF16A4CDE40BD6908FF
:104E0000FC5FA4685D980586D84691E1511A01CDF2
:104E100056A42DDC6486B24819415D65D45F2540F7
:104E20006CDD770533668885B08250CB81126CDDEE
:104E3000771781D8E0EF681637CF41A62DDB64AD38
:104E4000A1DB20F1681889CD96A46DDB52FA80FEB3
:104E50009D5F3FB392709E3F66097B5A3FD8805F4B
:104E600011862BDD47A5506FCEE8D264A077CD9C8C
:104E7000D0AD46A13DDA54E641D820EF4815A1CE89
:104E800086A166DE941641DA91F1098A6471A861FF
:104E90004279D567AEA9FF6D48A47004B7607ECA99
:104EA000B6201EA9613E4D4588BE7BFD9F29D54F8A
:104EB000DCA991F10985D6BE30F1EB2C155D50DDF2
:104EC000BE98D2865E5F48616E89A58B6E0947F3F6
:104ED000701AC5CB4EA6197028F6CC66928DC918EB
:104EE000255E49A4224905769F4999C7C9182F5EB6
:104EF00056A26DDA8D6041DB20F0583BF3CC58357B
:104F00008DDC1490C1DA00F148189ACF8F11DEDAE7
:104F1000C314D116A0D56916275BCB289F39658E9F
:104F2000604C013E29E1DC11D994DEDCC328A1D814
:104F300000EFE816BBCF66A26DD9948551D930EE4B
:104F4000611AA2CF76164E296515A40691DF69165F
:104F50006F5BD9A29C4EAE400FB9A1EF888AC10108
:104F6000D9A49D4E15F4614CB0D5D918535B41A618
:104F70002DDC93E7FF6ED98D5719DB7971407E29BF
:104F80004E80D246A27B181680CBC9A29C4E151E1D
:104F9000614C9A79D8FC9ECBC9A29D4E6579ABA98C
:104FA000F96D3AA224DF41A6EEDAC2AEB2A2053E06
:104FB00032944343C994DEDAC2BCD11691F1868A99
:104FC00040CF7416EDC00554634CF24A39654EDF8C
:104FD000C973DECC8D4091DAF0F1581711E997C80A
:104FE000F7CC93778A6EAADFD2B4E4CA9D386DD924
:104FF000646091D819F3C916C55BD9A29A4E0EE424
:10500000D13E19F3581819CD86A43DDC85E54EA98B
:10501000D98D19651ACAB238F64AAD006F403D7590
:10502000868CE6AD96A22DDAA4B851D819F368178C
:105030003FCC46C76DDB9613D1DAB0F13818C1CD3D
:10504000D9A29B4E05D4624CA975DA75ACCF751602
:105050004E296907A50691DFC9189C5EC9A29A4E20
:10506000143EDEDA4D63C916545BC688DEDCC16AC5
:10507000CED84D63C9164B5BD128873D05EC9F49BF
:10508000A0DBC918455EB6A24DDA241AD1D820EEAD
:1050900058439DCE56A176DE930D9B6E9981A275E5
:1050A00040CF76164E2965FBA40691DFD7B8B7AE80
:1050B00047A5FF70767A56DC10F05818A3CD86A469
:1050C0003DDC11C2B248DFB528D442DFC2706CDDCE
:1050D00087F9D0AA1FF21DAC205FC8926CDD59F889
:1050E000D6C81FF21DAC7EDFB112DFCA0EE250DD62
:1050F000E58548A9F29EA61E4F66077A50DDE58534
:105100003C198ADFB112565F35FAB31E10ADC906DD
:105110001ECA9D383DDA548641D820EF481516CB7B
:1051200086A43DDCED0ADDAD91F182893CCCF3151E
:10513000272C59D344DB21F00489F45F47A5506F35
:10514000534050DD6D86281687CF41A6ADDBE4DDE8
:1051500031DB90F0D817C9CCE6A31DDB54CF81DB3F
:1051600000F048176BCD56A42DDC64F84666948E8B
:10517000597562CFA713E02E05EA674D21F0038928
:1051800090CC71156EDB4083D6AAA53EAAB480CA26
:10519000BB37EDFF7D01CED9FF60629AB5AEC4F793
:1051A000F029E68C50DD0A72166B78BE1AF143774F
:1051B000769DB2470E7CAF657E70983D2A5762A1FE
:1051C00024A9B88CFAB16A50F42F4B29F3E32F6568
:1051D0007D6CC6A324BF063FAF75D1D50357143EDF
:1051E000B2166ABDDDF16CDD77CFA94872EFC886D3
:1051F00078BDDDF16CDD77D1A84872EFB88676BD59
:10520000DDF16CDD7723AB4872EFA88684BDDDF15C
:105210006CDD7735AD4872EF888692BDDDF16CDDCF
:105220007707AC4872EF7886A0BDDDF16CDD7709B9
:105230005F19C254D168A2BE29A2D44B93A9AC6F06
:105240009941DD6524CFC9136CDD776DD6AAA53EE3
:10525000A916D35C47A5506F52BF8CA9C54034B383
:105260009172A51F5B6786859E67E28A1593B3409E
:105270006EF300773659F247CE7C83671F70383D56
:10528000CA57029D5DA95B3E8DB3DB72C49AFCD206
:10529000379050DDAB98148696CA4E38E9D6211265
:1052A000EC481FF2E3BF6D5F47A565707CAC3FD84B
:1052B000905FD16820BE47A5506F7BBA3FD8805F12
:1052C000D16856BE47A5506F7AC83FD8705FD16885
:1052D00044BE47A5506F78D63FD8505FD1684ABECC
:1052E00047A5506F86B57CDF1181CA7B64BDDDF1B7
:1052F000BEDA20F150DD0384D1686EBE29A2F84BDE
:105300009395AC6F9941DD6568CFD4136CDD772937
:10531000D6AAA53EA9168A5C47A5506F0DFECAA95C
:10532000804ABB6567BE47A57C700DC8CAA971EFEE
:105330001B873CCABB37E62C19D93ED8E460571905
:10534000B278C1F4F229E5D6E14B1FF23BABC6BD02
:10535000DDF1BE35F7B518A91FF267ACD4BDDDF19C
:10536000C236F7831CA91FF267ACE2BDDDF1BEDADD
:10537000237350DD0384D168ECBE29A2FD4B93EB6F
:10538000AC6F9941DD65E6CFE9136CDD77ABD6AA4A
:10539000A53EAA6FE6BE0AF16CDDA3BCD6AAA53E67
:1053A000A9161B5C47A5506F0D4ACAA971EF038768
:1053B000BECABB37E62C19573ED8CC6057194C787B
:1053C000C1F4F229E554E24B1FF23BAB44BDDDF1E1
:1053D000BEDA42D150DD0384D1684EBE29A21C4BF7
:1053E0009375AC6F9941DD658EB23BF1A129937B3A
:1053F000406E9941DD6598B33BF1A4299369406EF5
:105400009941DD656BB03BF1A129939F406E91EF0F
:10541000218782CF90136CDD8C3EDED8EB60D916ED
:10542000FB5C47A5657005B6824BA1EF268720CAB5
:105430004E38E62C19D53ED803605719CE78C1F402
:10544000F229E5D2FA4B1FF23BABC2BDDDF1BEDA69
:105450002A5350DD0384D168CCBE29A2044B93CBE0
:10546000AC6FD63ED168F2BE29F16CDD774B9F1947
:10547000DA55D168E0BE203E6CDD775DCF5F3A4EF5
:10548000D66B10BE203E6CDD7E9DD1F79941DD6567
:105490009ECA15393DDA540641D820EF481571CE21
:1054A00096A12DD94435F1D9B0EED815D3CE26A189
:1054B000BDD9D42356DC40F08817F5CC16A3CDDB3C
:1054C0000453D1DBB0F0F81777CC86A33DDB745DD5
:1054D000A1DB20F1681819CD96A45E19850D93FE05
:1054E000EF157586185FC892EE2906BFCE09939115
:1054F000DA8AFAAED2D4EAA524B6A248FF6D48A44F
:1055000005CEBDA23E768E93D8AC91F182891ECC99
:10551000F3156EDBBD114EDBCC62D16888BE23F182
:105520006CDD7705DFA9AA3E57192D79C1F4F22960
:10553000E5D150DD0384CA65A8BE69A2BC4AA80FA4
:105540004FB9913ED96566CF5B12705FA1B97CA956
:10555000413E4B4574BE79F1E058184450DD188542
:105560005565EABDDDF1BE2993FDAC6F12AE127C2C
:10557000299DCDF5DEDCBE734EDBCB625917465A52
:1055800059A3194D8D654AA90F3E38B378BEB63F71
:1055900001294FBDA64892EFDA16155F47A5657041
:1055A0007CA0DFD8A2EFC886A6CA4E3828DD1658E0
:1055B000DEA9A13E5719B179C9F1EE299329596E97
:1055C000913ED965CACA4E38DE29152B50DD1885A3
:1055D000536FC1BEAFF14C777DD8DFD8A2EFD8862C
:1055E000640CD3606CDD8CC0B4DDC255D1687ABE6A
:1055F00022F2D029CB1550DD2F85D16868BE29F65F
:10560000D129CBE350DD2F85C9162B5CD9A2804B65
:10561000EFF12EA91FF2CFBFD35F47A56570058EAE
:105620008D48A1EF1D8628CA4E38E62C19CD3ED8EC
:10563000DE5F5719C678C9A2214A15AA9A481FF2F7
:1056400050ACCABDDDF1BEDAF74850DD0384D16845
:10565000C4BE29A24C4B93C3AC6FF5200B8650CA35
:10566000EE376CDD2B4DBC8B31EE3787AE5F47A537
:10567000056F84C4A2CA09F2566B68BE6AF140770E
:1056800076ADBE47027C7F654B70983D1E575691A4
:1056900014A9B58CFAB13650F82FBB290AB3CF65DF
:1056A000916CDAA3C4BF2F3FCF75E5A52F57843E79
:1056B00080B3705F47A5056F7DB8DFDAA05F0B860A
:1056C000CECAEE37554A06542148D35F5719697838
:1056D000BF12DFDCF4D49C481FF2F0AB295FC8A4F2
:1056E000BD4A47E250DDB8843D866BCD0612204AA4
:1056F0009365F96F045FCA18C75F73A52F3F47FE14
:1057000050DDB884C918705C8B126CDD2C2BDEDA8E
:1057100091600B861ACAEE37DEDC061953AF233EC2
:105720002D67EC70983D1E575637AFABC08CFAB161
:105730009050F82F052B0F19CF65916CDAA384BC1C
:10574000223FCF75E54B2F57943E31B38E5F47A56F
:105750001A6F2152D646AA7D9C6578517A30B8DE00
:105760006696DC46A47D4186FED5CC9C204A93FB00
:10577000E26FAD5FD194EF413AF18058B86224DC1A
:10578000F255CB941741B112F2D808049C481FF28D
:10579000F0AB645FC8A4CD4A479850DDB8843E861C
:1057A00021CD1612204A9333F96F055FCA18E15FC5
:1057B0008B126CDD2C93AD4892F1888656CA4770E7
:1057C0007D9873E347BFD35F57196D78C9A4F94B30
:1057D00047D050DDB884C918425C8B126CDD2CF9BF
:1057E000DEDAAE600B86E8CAEE37DEDC21EF9C48DD
:1057F000804ABB65B7BE47A52D6F47FA50DDB88418
:10580000C918D05C8B126CDD2C2FDEDAE4600B86BD
:105810001ECAEE37DEDC44159C48714ABB6558BE93
:1058200047A52D6F47243AA4833E8B6522CA86374D
:10583000204A93A7F96F91F1E787F85F47A5056FB5
:1058400005D2C14BD35F5719EF78C9A4FE4B474E21
:105850003FA3833E8C6558CA8637204A93C9F96FA7
:10586000298D0B866ACAEE37EEDA3E69475E325200
:10587000D916C85CC0284F3995EAE74B91F10387E8
:1058800090CCE1136EDB2C854EDBBF605917235C97
:1058900059A3084B9507F74B21F0F9878CCCE613F9
:1058A0006EDB31A14EDBBC605917185C59A30F4B5E
:1058B00086515F89113E0B86B6CAEE37DEDC40BDED
:1058C0009C481FF2F0AB46CDF513204A9359F96F6F
:1058D000A1EF06875D495001DEDC42D95FA9D35FA5
:1058E00057194578C9A41C4B47E838A5833E8C65F9
:1058F000FECA8637204AF31A2CA9573E5719317829
:105900008B121C4AF45A2106543E5719C378871249
:105910005FDFF4FD2CA9543E996514CAB04B5EE0DC
:10592000D6D1F1A7C33E478619C8CAF15FD992BD47
:10593000DF19F2554A65F45F47A51A6F15AE874B1C
:1059400091F12187865F47A51A6F15D8854B91F194
:105950002387905F47A51A6F15CA834B91F125875E
:10596000A25F47A5056F05F4AC4BD35F5719C97803
:10597000C9A4024B477450DDB884C918D95C8B1296
:105980006CDD2CA5DEDAB7605E65485F47A5056F64
:1059900096C187BED35F57193F78C9A44C4B08AF57
:1059A00046B9933EC918485CBB124CA084E2CEC8ED
:1059B000035FC9062C496005EB2F175B50DD74713E
:1059C000534542CF8412DEAB055A93489E44DB65B3
:1059D000B27347A5575D8156A1F6035F37DC2111ED
:1059E000D992504A0564C65E1A4E69466BBB47A5FC
:1059F000EE7185D077B9994CDC65F4CAAC479C0947
:105A00009593194F1FF212B388CFD513EEDA450ADA
:105A1000D75E1A52544618CA0B38E63718FD50DDC7
:105A2000DB944D46A5BA47A5EE7193BF646B0F1E7C
:105A3000D06B3CCAD9396CDD441CA68998425719F1
:105A4000D07647A57F6277879C481FF2F0ABCECD1A
:105A5000A713E1799DA5DCA991F13787D1B8DBF1D6
:105A60006CDD7377D3AFA33E5719094DC9A24C4BD8
:105A700093E5F8619544D96576CA83476CDD497032
:105A80008B89914357191676CAF1DEDCCF8B90894A
:105A90001FF2FAA45F9E8B126CDD41BDAC48FFB5CE
:105AA00048D492DFBB127ECAB7BE1FBD1FF2558A13
:105AB0003DB8DBF16CDDE8A4DCAD911EC916735F67
:105AC000C973DEDC52C4EC89D35F57197078D9A44E
:105AD000444A0540BB48D35F57196678D9A4464A63
